:020000040000FA
:040000007DEF00F0A0
:100018004E80D8CF09F0E8CF0AF0E0CF0BF0F3CF4D
:100028000CF0F4CF0DF0F6CF0EF0F7CF0FF0F8CFBD
:1000380010F0F5CF11F09EAC24EF00F026EF00F0A1
:1000480029EF00F09E9C80EC06F0F2A42EEF00F061
:1000580030EF00F033EF00F0F29440EC04F09EA093
:1000680038EF00F03AEF00F041EF00F09E90000EFC
:10007800CF6E000ECE6E6FEC07F0A4A046EF00F036
:1000880048EF00F069EF00F0A4903FC087FF40C040
:1000980088FF020E4C18D8A454EF00F056EF00F079
:1000A80068EF00F0000E4C6E44B002D0809401D08E
:1000B80080844450D8B463EF00F066EF00F0010E7E
:1000C80067EF00F0000E446E4C2A11C0F5FF10C017
:1000D800F8FF0FC0F7FF0EC0F6FF0DC0F4FF0CC00D
:1000E800F3FF0BC0E0FF0AC0E8FF09C0D8FF4E903D
:1000F8001000B0EF06F02FC070F030C071F031C0C2
:1001080072F032C073F033C074F034C075F035C08B
:1001180076F036C077F0000177BF95EF00F098EFE2
:1001280000F0010E99EF00F0000E6E6F6F6B6E51CC
:100138006F11D8B4A2EF00F0A4EF00F0B4EF00F014
:10014800771F761F751F741F731F721F711F706DC5
:10015800000E712372237323742375237623772368
:1001680048BEB9EF00F0BBEF00F0BCEF00F04992D9
:1001780048BEC9EF00F0485006E14704D8B0C7EFC1
:1001880000F0C9EF00F0CFEF00F0000E6B6F010E2A
:100198006A6FD3EF00F047C06AF048C06BF0B2C096
:1001A8006CF0B3C06DF06E516F11D8A4DEEF00F0A3
:1001B800E0EF00F0E7EF00F049A4E5EF00F0E7EF2B
:1001C80000F0EAEF00F06C07D8A06D07000E796F19
:1001D8001F0E786F000ED66F6FEF01F07807D8A06A
:1001E8007907B70E7825D96E000E7921DA6E70C0BE
:1001F80012F071C013F072C014F073C015F074C01F
:1002080016F075C017F076C018F077C019F00A0E0E
:100218001A6E000E1B6E000E1C6E000E1D6E000E78
:100228001E6E000E1F6E000E206E000E216E8EECEC
:1002380003F012C060F013C061F014C062F015C082
:1002480063F016C064F017C065F018C066F019C0F6
:1002580067F060C024F062C025F04FEC07F024502E
:10026800300FDF6E00016A07D8A06B076C07D8A0B3
:100278006D0770C012F071C013F072C014F073C033
:1002880015F074C016F075C017F076C018F077C076
:1002980019F00A0E1A6E000E1B6E000E1C6E000E70
:1002A8001D6E000E1E6E000E1F6E000E206E000EDC
:1002B800216ECAEC02F012C070F013C071F014C0C5
:1002C80072F015C073F016C074F017C075F018C03E
:1002D80076F019C077F0000179BF7BEF01F0795112
:1002E80008E17805D8A07BEF01F07DEF01F0ADEFD4
:1002F80001F0705171117211731174117511761129
:100308007711D8A48AEF01F08CEF01F0F2EF00F03A
:100318006BBF99EF01F06B5106E16A05D8B097EF12
:1003280001F099EF01F0F2EF00F06DBFA4EF01F0DA
:100338006D5108E16C05D8A0A4EF01F0A6EF01F01B
:10034800ADEF01F049B2ABEF01F0ADEF01F0F2EF24
:1003580000F06E516F11D8A4B4EF01F0B6EF01F0C0
:10036800BDEF01F049A4BBEF01F0BDEF01F0DBEFF9
:1003780001F07807D8A079076E516F11D8A4C7EF9C
:1003880001F0C9EF01F0CFEF01F0000E696F2B0EFD
:10039800686FD3EF01F0000E696F2D0E686FB70E0E
:1003A8007825D96E000E7921DA6E68C0DFFF2DC07E
:1003B80022F02EC023F0B70E7825246E000E792186
:1003C800256E6CC026F06DC027F031EC05F022C018
:1003D8002DF023C02EF0120039C0D9FF3AC0DAFF41
:1003E800DECFF6FFDDCFF7FF0800F550250AD8A4C9
:1003F80000EF02F002EF02F0AEEF02F039C0D9FFD1
:100408003AC0DAFFDE2A000EDD22000E0001B36FCB
:10041800000EB26FB2C049F0B3C04AF047684868EE
:1004280039C0D9FF3AC0DAFFDECFF6FFDDCFF7FFDC
:100438000800F550640AD8B424EF02F026EF02F061
:1004480038EF02F039C0D9FF3AC0DAFFDECFF6FF45
:10045800DDCFF7FF0800F550690AD8A436EF02F09F
:1004680038EF02F078EF02F039C0D9FF3AC0DAFF6E
:10047800DE2A000EDD223BC0D9FF3CC0DAFFDFCF09
:100488007AF0020EDE26DFCF7BF0000EDD227AC086
:10049800D9FF7BC0DAFFDECF7CF0DDCF7DF0000E28
:1004A8007DBFFF0E7E6F7F6F806F816F826F836F5E
:1004B80037C02DF038C02EF07CC02FF07DC030F052
:1004C8007EC031F07FC032F080C033F081C034F09C
:1004D80082C035F083C036F07FEC00F02DC037F0D5
:1004E8002EC038F0C9EF02F039C0D9FF3AC0DAFFA0
:1004F800DECFF6FFDDCFF7FF0800F550250AD8A4B8
:1005080088EF02F08AEF02F0A1EF02F039C0D9FFBC
:100518003AC0DAFFDE2A000EDD22000E136E250E29
:10052800126E37C014F038C015F0CCEC04F0000E91
:10053800386E010E376EC9EF02F039C0D9FF3AC0E4
:10054800DAFFDE2A000EDD22000E386E000E376E4E
:10055800C9EF02F039C0D9FF3AC0DAFFDECFF6FFA3
:10056800DDCFF7FF0800F550126E136A37C014F09C
:1005780038C015F0CCEC04F039C0D9FF3AC0DAFF26
:10058800DE2A000EDD229BEF02F01200000E236E21
:1005980021BED3EF02F0D1EF02F0E5EF02F0211E09
:1005A800201E1F1E1E1E1D1E1C1E1B1E1A6C000E4A
:1005B8001B221C221D221E221F2220222122010E64
:1005C800236E19BEECEF02F0EAEF02F0FEEF02F044
:1005D800191E181E171E161E151E141E131E126C29
:1005E800000E13221422152216221722182219226D
:1005F800010E231A20EE24F0070EDE6AE806FDE25B
:100608001A501B101C101D101E101F102010211036
:10061800D8B411EF03F013EF03F065EF03F0010E08
:10062800226E21EF03F0D8901A361B361C361D3681
:100638001E361F3620362136222A21AE26EF03F039
:1006480028EF03F017EF03F0D89024362536263626
:100658002736283629362A362B361A50125C1B5074
:1006680013581C5014581D5015581E5016581F501A
:1006780017582050185821501958D8A046EF03F0A1
:1006880048EF03F059EF03F01A50125E1B50135A4B
:100698001C50145A1D50155A1E50165A1F50175ADE
:1006A8002050185A2150195A2480D89021322032CB
:1006B8001F321E321D321C321B321A32222E28EFF4
:1006C80003F02350D8B46BEF03F06DEF03F07DEF28
:1006D80003F02B1E2A1E291E281E271E261E251E35
:1006E800246C000E252226222722282229222A22AB
:1006F8002B2224C012F025C013F026C014F027C006
:1007080015F028C016F029C017F02AC018F02BC021
:1007180019F01200000E236E19BE97EF03F095EF43
:1007280003F0A9EF03F0191E181E171E161E151E3A
:10073800141E131E126C000E1322142215221622E8
:10074800172218221922010E236E21BEB0EF03F0E2
:10075800AEEF03F0C0EF03F0211E201E1F1E1E1E69
:100768001D1E1C1E1B1E1A6C000E1B221C221D2285
:100778001E221F22202221221A501B101C101D107D
:100788001E101F1020102110D8B4CDEF03F0CFEFAA
:1007980003F017EF04F0010E226EDDEF03F0D8909E
:1007A8001A361B361C361D361E361F3620362136A5
:1007B800222A21AEE2EF03F0E4EF03F0D3EF03F0D7
:1007C8001A50125C1B5013581C5014581D501558C1
:1007D8001E5016581F501758205018582150195895
:1007E800D8A0F9EF03F0FBEF03F00BEF04F01A5079
:1007F800125E1B50135A1C50145A1D50155A1E5085
:10080800165A1F50175A2050185A2150195AD89062
:10081800213220321F321E321D321C321B321A3254
:10082800222EE4EF03F02350D8B41DEF04F01FEF9D
:1008380004F02FEF04F0191E181E171E161E151EA1
:10084800141E131E126C000E1322142215221622D7
:1008580017221822192212C012F013C013F014C064
:1008680014F015C015F016C016F017C017F018C010
:1008780018F019C019F012004D28D8A446EF04F05A
:1008880048EF04F04AEF04F0000E4D6E4628D8A455
:1008980050EF04F052EF04F054EF04F0000E466EEF
:1008A8004528D8A45AEF04F05CEF04F05EEF04F09A
:1008B800000E456E4D50020D250EF324F66E3D0ECA
:1008C800F420F76E0900F5CF01F00900F5CF02F02A
:1008D80002C001F0026A01BE02680150036E03C043
:1008E80078FF4D50020D250EF324F66E3D0EF420D0
:1008F800F76E0800F5CF79FF4650020D250EF32458
:10090800F66E3D0EF420F76E0900F5CF01F00900F0
:10091800F5CF02F002C001F0026A01BE0268015080
:10092800036E03C076FF4650020D250EF324F66EC3
:100938003D0EF420F76E0800F5CF77FF4550020D05
:10094800250EF324F66E3D0EF420F76E0900F5CF60
:1009580001F00900F5CF02F002C001F0026A01BE01
:1009680002680150036E03C074FF4550020D250E46
:10097800F324F66E3D0EF420F76E0800F5CF75FFF0
:100988003DC0D6FF3EC0D7FF4D2A462A452A120051
:1009980014501510D8B4D3EF04F0D5EF04F0DEEFFF
:1009A80004F014501510D8A4DCEF04F0DEEF04F0C6
:1009B800E3EF04F0125024EC08F030EF05F020EEDD
:1009C80004F01450D9261550DA22DE50DE10D8B4BF
:1009D800F0EF04F0F2EF04F00DEF05F020EE04F074
:1009E8001450D9261550DA2210EE02F01450E126E0
:1009F8001550E222DE50E65CE650800A1A6EDE50A0
:100A0800800A1A58D8B00BEF05F00DEF05F030EF5B
:100A180005F020EE02F01450D9261550DA22DECF68
:100A280016F0DDCF17F014C0D9FF15C0DAFFDECFFE
:100A380018F0DDCF19F016501824D96E1750192068
:100A4800DA6E12C0DFFF20EE02F01450D9261550DE
:100A5800DA22DE2A000EDD22120049A036EF05F068
:100A680038EF05F042EF05F024C01BF025C01CF05C
:100A780022C01DF023C01EF02DEC07F027BE47EF63
:100A880005F049EF05F04FEF05F026C02BF027C021
:100A98002CF053EF05F0000E2C6E000E2B6E000E9E
:100AA8002A6E000E296E65EF05F0000E136E200EFB
:100AB800126E22C014F023C015F0CCEC04F0294AC1
:100AC8002A2A2B50295C2A50800A286E2C50800A2A
:100AD8002858D8A072EF05F074EF05F059EF05F02B
:100AE80049B079EF05F07BEF05F085EF05F024C0FC
:100AF8001BF025C01CF022C01DF023C01EF02DECF9
:100B080007F024C012F025C013F0EBEC07F02B50CF
:100B18001224226E2C501320236E1200146E1438E7
:100B28000F0B146E14500F0B146E14C013F0F10E4B
:100B380013161346134682501318FB0B1318826EB4
:100B480014C013F0D8901332790E131613461346B7
:100B5800134682501318F70B1318826E14C013F043
:100B6800D8901332D89013323D0E131683501318B1
:100B7800FE0B1318836E14C013F0D8901332D8905C
:100B88001332D89013321F0E1316134683501318BE
:100B9800FD0B1318836E12B002D0829001D08280B0
:100BA800828200F000F082921200000E1B6EF6EFB7
:100BB80005F01B501724196E000E18201A6E19C064
:100BC800F6FF1AC0F7FFF86A020EF76403D00800B0
:100BD800F55005D0F6CFE1FFF7CFE2FFE75006EC7E
:100BE80008F01B2A1B501724196E000E18201A6EC5
:100BF80019C0F6FF1AC0F7FFF86A020EF76403D0AF
:100C08000800F55005D0F6CFE1FFF7CFE2FFE75037
:100C18000009D8A412EF06F014EF06F0DDEF05F096
:100C28001200000E066E000E056E03500410D8B4B4
:100C380020EF06F022EF06F04AEF06F0010E076EED
:100C48002AEF06F0D89003360436072A04AE2FEFB1
:100C580006F031EF06F026EF06F0D8900536063696
:100C68000350015C04500258D8A03DEF06F03FEF56
:100C780006F044EF06F00350015E0450025A058066
:100C8800D89004320332072E31EF06F005C001F088
:100C980006C002F0120086C08AF087C08BF0000EF2
:100CA8000001B16F000EB06F6DEF06F084C037F031
:100CB80085C038F08A0E396E000E3A6E88C03BF057
:100CC80089C03CF0F0EC01F037500001B0273850F3
:100CD800B1238AC0F6FF8BC0F7FF0800F550000962
:100CE800D8A479EF06F07BEF06F05AEF06F0B0C013
:100CF80084F0B1C085F01200C4504318D8B487EF0F
:100D080006F089EF06F0ACEF06F0C450FF0A086E53
:100D18000850630DF3CF01F0F4CF02F0D7C003F011
:100D2800D8C004F015EC06F001C0B4F002C0B5F06C
:100D3800D8900001B435F66EB535F76E250EF62657
:100D48003F0EF7220900F5CF3DF00A00F5CF3EF03F
:100D5800C4CF43F000F01200460EF66E100EF76E88
:100D6800000EF86E0900F5CFD7F00900F5CFD8F0DE
:100D78003C0EF66E100EF76E000EF86E00EE3DF0AB
:100D880010EE0AF00900F5CFEEFFE550E150FAE168
:100D980000EEACF02B0EEE6AE806FDE100EE47F03F
:100DA800070EEE6AE806FDE14E904E92000EF86ED0
:100DB8000001CDEF07F0900E0001946F000E956FC3
:100DC8008CC096F08DC097F0000E996F000E986F4A
:100DD800000E9B6F000E9A6F960E846F000E856F43
:100DE8008EC086F08FC087F0940E886F000E896FD2
:100DF8004FEC06F0000198518C25D96E99518D2140
:100E0800DA6E000EDF6E1200949094929494949689
:100E18009590959282908292829482968390839202
:100E2800410E176EEE0EE82EFED7172EFCD700F0F7
:100E380000F0320EAEEC07F0280EAEEC07F00C0E08
:100E4800AEEC07F0010EAEEC07F0060EAEEC07F0C4
:100E58001200000E216E000E206E3EEF07F01FC03C
:100E680012F0136A1DC014F01EC015F0CCEC04F08B
:100E7800204A212A20501B24D96E21501C20DA6ECA
:100E8800DF501F6E1F50D8A44CEF07F04EEF07F04D
:100E980033EF07F0120025BE5CEF07F0255006E19E
:100EA8002404D8B05AEF07F05CEF07F06AEF07F0B8
:100EB80024C026F025C027F0261E271E264A272AEA
:100EC80026C024F027C025F06EEF07F024C024F0D8
:100ED80025C025F012004B2A050E4B18D8A477EF31
:100EE80007F079EF07F08EEF07F0000E4B6E000168
:100EF800B451411809E1B5514218D8B486EF07F04A
:100F080088EF07F08AEF07F0010EB66FB4C041F022
:100F1800B5C042F01200010EAEEC07F09C0E0001C5
:100F28008C6F000E8D6FFC0E8E6F3F0E8F6FB4C0EE
:100F380090F0B5C091F0DFEC06F09C0E176E000E35
:100F4800186ED9EC05F0200E06EC08F0000E000132
:100F5800B66F1200166E110E156E3A0EE82EFED7F9
:100F6800152EFCD700F000F0000E126E165092EC11
:100F780005F01638F00B166E040E156E3E0EE82EB0
:100F8800FED7152EFCD7000E126E165092EC05F007
:100F9800120008EC07F0010EAEEC07F0F70E176E22
:100FA8003F0E186ED9EC05F092949294B894808410
:100FB8000001B651D8B4E3EF07F0E5EF07F0DCEF36
:100FC80007F08FEC07F0DCEF07F07DEF00F012C0C0
:100FD80014F013C015F0F3EF07F0124A132A12C0E9
:100FE800D9FF13C0DAFFDF50D8A4FDEF07F0FFEFF9
:100FF80007F0F1EF07F01450125C126E15501358F9
:10100800136E1200166E110E156E3A0EE82EFED7EC
:10101800152EFCD700F000F0010E126E165092EC5F
:1010280005F01638F00B166E010E126E165092EC83
:1010380005F0120077ECDB0B65004101AA55FF00B3
:02104800120094
:103D240000C003D603EC03020419042F0445045B0A
:103D340004710488049E04BB04D204E004F7040D57
:103D440005230539054F0566057C058B05A105B7D7
:103D540005C605DC05EB05010610062606350644F6
:103D6400065A066906770686069506A406B306C1B2
:103D740006C906D806E606EE06FD06040713071A6A
:103D84000722072907300738073F0747074E07551B
:103D94000755075D075D07640764076407640764E4
:103DA40007640764076407640764075D075D0755D4
:103DB4000755074E07470747073F073807300729C6
:103DC400071A0713070B07FD06F506E606DF06D0FC
:103DD40006C106BA06AB069C068E067F067006610F
:103DE400064B063C062D061F060806FA05E305D514
:103DF40005BE05A805990583056D055705480532D7
:103E0400051C050505EF04D904C304AD049604801C
:103E1400046A0454043E0427040A04F403DD03C7BB
:103E240003B1039B0385036E0351033B0324030E79
:103E340003F802E202CC02B5029F02890273025D1A
:103E4400024602300221020B02F501DF01D001BA61
:103E540001A40195017F0170015A014B013C012D20
:103E64000117010801F900EB00DC00CD00BE00B72A
:103E740000A8009900920083007C006D0065005E3C
:103E8400004F00480040003900320032002A00236D
:103E94000023001B001B0014001400140014001461
:103EA40000140014001400140014001B001B002351
:103EB4000023002A0032003900400048004F005718
:103EC400005E00650074007C008A009200A100AFCF
:103ED40000B700C600D400E300F200010110011E87
:103EE40001350143015201680177018D019C01B242
:103EF40001C101D701EE01FC01130229023F025561
:103F0400026B0282029802A702BD02DA02F10207E2
:103F1400031D0333034903600376038C03A203B830
:103F24000377EC3BF67CF91DFB17FCBDFC34FD8EDE
:103F3400FDD3FD0BFE38FE5EFE7EFE99FEB1FEC68D
:103F4400FED8FEE9FEF7FE05FF10FF1BFF25FF2E3E
:103F5400FF37FF3EFF45FF4CFF52FF58FF5DFF62F6
:103F6400FF67FF6BFF70FF74FF77FF7BFF7EFF82AD
:103F7400FF85FF87FF8AFF8DFF8FFF92FF94FF96D7
:103F8400FF98FF9BFF9CFF9EFFA0FFA2FFA4FFA53D
:103F9400FFA7FFA8FFAAFFABFFADFFAEFFAFFFB0C7
:103FA400FFB2FFB3FFB4FFB5FFB6FFB7FFB8FFB969
:103FB400FFBAFFBBFFBCFFBDFFBEFFBEFFBFFFC01C
:103FC400FFC1FFC2FFC2FFC3FFC4FFC4FFC5FFC6DA
:103FD400FFC6FFC7FFC8FFC8FFC9FFC9FFCAFFCAA2
:103FE400FFCBFFCBFFCCFFCDFF303132333435363E
:0C3FF4003738396161616100256400000C
:020000040020DA
:08000000FFFFFFFFFFFFFFFF00
:020000040030CA
:0E000000FF460E3E249D81FF0FC00FE00F4013
:00000001FF
