:020000040000FA
:0400000004EF01F018
:100018002880D8CF0AF0E8CF0BF0E0CF0CF0F3CF70
:100028000DF0F4CF0EF0F6CF0FF0F7CF10F0F8CFB9
:1000380011F0F5CF12F0A4A824EF00F026EF00F09D
:1000480027EF00F0A4989EAC2CEF00F02EEF00F004
:100058005DEF00F09E9CC4502618D8B436EF00F02F
:1000680038EF00F05AEF00F0C450FF0A086E08504D
:10007800640DF3CF01F0F4CF02F01EC003F01FC0EF
:1000880004F006EC01F001C024F002C025F0D8907D
:100098002434F66E2534F76E350EF6263F0EF72219
:1000A8000900F5CF14F00A00F5CF15F0C4CF26F0FB
:1000B80000F0F2A462EF00F064EF00F0F0EF00F05F
:1000C800F2942728D8A46BEF00F06DEF00F06FEFE3
:1000D80000F0000E276E1D28D8A475EF00F077EF0A
:1000E80000F079EF00F0000E1D6E1C28D8A47FEFF9
:1000F80000F081EF00F083EF00F0000E1C6E275037
:10010800020D350EF324F66E3D0EF420F76E09004D
:10011800F5CF08F00900F5CF09F009C008F0096A21
:1001280008BE09680850136E13C078FF2750020DE7
:10013800350EF324F66E3D0EF420F76E0800F5CF69
:1001480079FF1D50020D350EF324F66E3D0EF42096
:10015800F76E0900F5CF08F00900F5CF09F009C0DE
:1001680008F0096A08BE09680850136E13C076FFC4
:100178001D50020D350EF324F66E3D0EF420F76E79
:100188000800F5CF77FF1C50020D350EF324F66EEC
:100198003D0EF420F76E0900F5CF08F00900F5CF01
:1001A80009F009C008F0096A08BE09680850136E0A
:1001B80013C074FF1C50020D350EF324F66E3D0E6D
:1001C800F420F76E0800F5CF75FF14C0D6FF15C0F0
:1001D800D7FF272A1D2A1C2A12C0F5FF11C0F8FFD5
:1001E80010C0F7FF0FC0F6FF0EC0F4FF0DC0F3FFFD
:1001F8000CC0E0FF0BC0E8FF0AC0D8FF2890100031
:100208005FEF01F0000E066E000E056E035004103D
:10021800D8B411EF01F013EF01F03BEF01F0010E3C
:10022800076E1BEF01F0D89003360436072A04AE98
:1002380020EF01F022EF01F017EF01F0D89005361A
:1002480006360350015C04500258D8A02EEF01F086
:1002580030EF01F035EF01F00350015E0450025A0F
:100268000580D89004320332072E22EF01F005C032
:1002780001F006C002F01200000E8A6E000E936EA6
:10028800000E816E7F907F927E9E7E9C6F8C6F9A0F
:100298006F986F906F926F946E926E80010E7A6E67
:1002A800F30E7B6E000E786E130E796EA3886B6862
:1002B800000E6A6E12005A0EF66E030EF76E000EEE
:1002C800F86E00EE14F010EE0CF00900F5CFEEFF1A
:1002D800E550E150FAE100EE20F0080EEE6AE8067B
:1002E800FDE128902892000EF86E00019FEF01F0C2
:1002F800C28AC298C296C294000EC16EC08AC088D3
:10030800C084C0829A8E99929990B88092809D8C70
:10031800C2809E9CC2821200D596D598D59AD59C4B
:10032800F28AD58ED590D582D59414C0D6FF15C043
:10033800D7FF95921200B3EC01F040EC01F07CEC91
:1003480001F090EC01F0B6EC01F0A9EF01F004EF38
:1003580001F0ECECE4FFECEC6500AA55FF00F28E2E
:08036800F28C12007E8E1200DF
:103D340000C003D603EC03020419042F0445045BFA
:103D440004710488049E04BB04D204E004F7040D47
:103D540005230539054F0566057C058B05A105B7C7
:103D640005C605DC05EB05010610062606350644E6
:103D7400065A066906770686069506A406B306C1A2
:103D840006C906D806E606EE06FD06040713071A5A
:103D94000722072907300738073F0747074E07550B
:103DA4000755075D075D07640764076407640764D4
:103DB40007640764076407640764075D075D0755C4
:103DC4000755074E07470747073F073807300729B6
:103DD400071A0713070B07FD06F506E606DF06D0EC
:103DE40006C106BA06AB069C068E067F06700661FF
:103DF400064B063C062D061F060806FA05E305D504
:103E040005BE05A805990583056D055705480532C6
:103E1400051C050505EF04D904C304AD049604800C
:103E2400046A0454043E0427040A04F403DD03C7AB
:103E340003B1039B0385036E0351033B0324030E69
:103E440003F802E202CC02B5029F02890273025D0A
:103E5400024602300221020B02F501DF01D001BA51
:103E640001A40195017F0170015A014B013C012D10
:103E74000117010801F900EB00DC00CD00BE00B71A
:103E840000A8009900920083007C006D0065005E2C
:103E9400004F00480040003900320032002A00235D
:103EA4000023001B001B0014001400140014001451
:103EB40000140014001400140014001B001B002341
:103EC4000023002A0032003900400048004F005708
:103ED400005E00650074007C008A009200A100AFBF
:103EE40000B700C600D400E300F200010110011E77
:103EF40001350143015201680177018D019C01B232
:103F040001C101D701EE01FC01130229023F025550
:103F1400026B0282029802A702BD02DA02F10207D2
:103F2400031D0333034903600376038C03A203B820
:103F340003ECEC1DED4EED7FEDB0EDE1ED12EE4343
:103F4400EE74EEA5EED6EE07EF38EF69EF9AEFCBFD
:103F5400EFFCEF2DF05EF08FF0C1F0F2F023F1549E
:103F6400F185F1B6F1E7F118F249F27AF2ABF2DC3D
:103F7400F20DF33EF36FF3A0F3D1F302F433F464E0
:103F8400F496F4C7F4F8F429F55AF58BF5BCF5ED7D
:103F9400F51EF64FF680F6B1F6E2F613F744F77520
:103FA400F7A6F7D7F708F839F86BF89CF8CDF8FEC0
:103FB400F82FF960F991F9C2F9F3F924FA55FA8660
:103FC400FAB7FAE8FA19FB4AFB7BFBACFBDDFB0E04
:103FD400FC40FC71FCA2FCD3FC04FD35FD66FD979E
:103FE400FDC8FDF9FD2AFE5BFE8CFEBDFEEEFE1F44
:0C3FF400FF50FF81FFB2FFE4FFE4FF007C
:020000040020DA
:08000000FFFFFFFFFFFFFFFF00
:020000040030CA
:0E000000FF460E3E241D81FF0FC00FE00F4093
:00000001FF
