:020000040000FA
:04000000DBEF01F041
:100018005F80D8CF6CF0E8CF6DF0E0CF6EF0E1CF25
:100028006FF0E2CF70F0D9CF71F0DACF72F0F3CF82
:1000380073F0F4CF74F0F6CF75F0F7CF76F0F8CF11
:1000480077F0F5CF78F09EAC2CEF00F02EEF00F0B3
:1000580033EF00F09E9CC450C4CFDBF000F0F2A454
:1000680038EF00F03AEF00F0C7EF00F0F29400012B
:10007800AE29D8A442EF00F044EF00F046EF00F0BC
:10008800000EAE6FDD29D8A44CEF00F04EEF00F063
:1000980050EF00F0000EDD6FDC29D8A456EF00F019
:1000A80058EF00F05AEF00F0000EDC6FAE51020D71
:1000B800290EF324F66E3D0EF420F76E0900F5CFF5
:1000C8006AF00900F5CF6BF06BC06AF06B6B6ABF22
:1000D8006B696A519E6F9EC078FFAE51020D290E62
:1000E800F324F66E3D0EF420F76E0800F5CF79FF85
:1000F800DD51020D290EF324F66E3D0EF420F76E45
:100108000900F5CF6AF00900F5CF6BF06BC06AF013
:100118006B6B6ABF6B696A519E6F9EC076FFDD513B
:10012800020D290EF324F66E3D0EF420F76E08003A
:10013800F5CF77FFDC51020D290EF324F66E3D0E44
:10014800F420F76E0900F5CF6AF00900F5CF6BF0DF
:100158006BC06AF06B6B6ABF6B696A519E6F9EC019
:1001680074FFDC51020D290EF324F66E3D0EF420C7
:10017800F76E0800F5CF75FFD1C0D6FFD2C0D7FF04
:10018800AE2BDD2BDC2B9EA0CCEF00F0CEEF00F0E9
:100198007BEF01F09E90000ECF6E000ECE6E000138
:1001A800AC2B050EAC19D8A4DCEF00F0DEEF00F0A4
:1001B8007BEF01F0000EAC6FD951D71907E1DA5186
:1001C800D819D8A4EAEF00F0ECEF00F0F8EF00F04F
:1001D800D151CF1909E1D251D019D8B4F6EF00F0B6
:1001E800F8EF00F073EF01F0010E96EC08F0890EBD
:1001F800586E000E596EFB0E5A6E3F0E5B6ED9C0DC
:100208005CF0DAC05DF0C0EC07F0890E066E000EF7
:10021800076EB5EC08F0200E08EC09F0D1C09AF092
:10022800D2C09BF0000E0001996F3DEF01F0790EEE
:100238009925D96EDA6A000EDA229AC001F09BC0BD
:1002480002F0000E046E0A0E036E34EC07F0015043
:10025800DF6E9AC001F09BC002F0000E046E0A0E19
:10026800036EFAEC06F001C09AF002C09BF00001A0
:10027800992B9A519B11D8A444EF01F046EF01F055
:100288001BEF01F0FF0E99259C6F9D6BFF0E9D23C0
:100298009DBF53EF01F051EF01F055EF01F073EFFF
:1002A80001F0790E9C25D96E000E9D21DA6EDF5083
:1002B8006A6F6B6BF10E6A25F66E3F0E6B21F76E57
:1002C8000800F55008EC09F000019C07D8A09D072C
:1002D8009DBF73EF01F071EF01F055EF01F0D9C048
:1002E800D7F0DAC0D8F0D1C0CFF0D2C0D0F0A4A0F7
:1002F80080EF01F082EF01F0BFEF01F0A490D3C0CE
:1003080087FFD4C088FF020E0001AD19D8A48FEF73
:1003180001F091EF01F0BEEF01F0000EAD6FAB51AF
:100328006A6F6B6BD9516A5DDA516B59D8B09FEF20
:1003380001F0A1EF01F0A4EF01F0AB2BB0EF01F059
:10034800AB51D95D000EDA59D8B0ADEF01F0AFEF7F
:1003580001F0B0EF01F0AB07AB51020D290EF32409
:10036800F66E3F0EF420F76E0900F5CFD1F00A00C3
:10037800F5CFD2F0AD2B78C0F5FF77C0F8FF76C087
:10038800F7FF75C0F6FF74C0F4FF73C0F3FF72C0C7
:10039800DAFF71C0D9FF70C0E2FF6FC0E1FF6EC025
:1003A800E0FF6DC0E8FF6CC0D8FF5F901000E9EF78
:1003B80007F01EC036F01FC037F020C038F021C04B
:1003C80039F022C03AF023C03BF024C03CF025C0ED
:1003D8003DF03DBEF2EF01F0F5EF01F0010EF6EF52
:1003E80001F0000E346E356A34503510D8B4FFEF82
:1003F80001F001EF02F011EF02F03D1E3C1E3B1E22
:100408003A1E391E381E371E366C000E3722382227
:1004180039223A223B223C223D220001A8BF17EF95
:1004280002F019EF02F01AEF02F0A993A8BF27EF24
:1004380002F0A85106E1A705D8B025EF02F027EF92
:1004480002F02DEF02F0000E316E010E306E31EF2A
:1004580002F0A7C030F0A8C031F0A5C032F0A6C0A5
:1004680033F034503510D8A43CEF02F03EEF02F0E0
:1004780045EF02F0A9A543EF02F045EF02F048EF7F
:1004880002F03206D8A03306000E3F6E1F0E3E6EF5
:10049800000ECE6FCCEF02F03E06D8A03F06AF0E9E
:1004A8003E24D96E000E3F20DA6E36C001F037C008
:1004B80002F038C003F039C004F03AC005F03BC080
:1004C80006F03CC007F03DC008F00A0E096E000EA9
:1004D8000A6E000E0B6E000E0C6E000E0D6E000EF6
:1004E8000E6E000E0F6E000E106EECEC04F001C0E4
:1004F80026F002C027F003C028F004C029F005C088
:100508002AF006C02BF007C02CF008C02DF026C03A
:1005180013F028C014F057EC08F01350300FDF6EBA
:100528003006D8A031063206D8A0330636C001F00E
:1005380037C002F038C003F039C004F03AC005F003
:100548003BC006F03CC007F03DC008F00A0E096E3B
:10055800000E0A6E000E0B6E000E0C6E000E0D6E75
:10056800000E0E6E000E0F6E000E106E28EC04F0DA
:1005780001C036F002C037F003C038F004C039F0CB
:1005880005C03AF006C03BF007C03CF008C03DF09B
:100598003FBED7EF02F03F5008E13E04D8A0D7EFA6
:1005A80002F0D9EF02F00AEF03F036503710381096
:1005B80039103A103B103C103D10D8A4E6EF02F079
:1005C800E8EF02F050EF02F031BEF5EF02F03150E3
:1005D80006E13004D8B0F3EF02F0F5EF02F050EF87
:1005E80002F033BE00EF03F0335008E13204D8A024
:1005F80000EF03F002EF03F00AEF03F00001A9B3E4
:1006080008EF03F00AEF03F050EF02F03450351012
:10061800D8A411EF03F013EF03F01BEF03F0000170
:10062800A9A519EF03F01BEF03F039EF03F03E061D
:10063800D8A03F0634503510D8A425EF03F027EF93
:1006480003F02DEF03F0000E2F6E2B0E2E6E31EF00
:1006580003F0000E2F6E2D0E2E6EAF0E3E24D96EB7
:10066800000E3F20DA6E2EC0DFFF1CC011F01DC047
:1006780012F0AF0E3E24136E000E3F20146E32C0EF
:1006880015F033C016F003EC06F011C01CF012C0D0
:100698001DF0120042C0D9FF43C0DAFFDECFF6FFDB
:1006A800DDCFF7FF0800F550250AD8A45EEF03F068
:1006B80060EF03F00CEF04F042C0D9FF43C0DAFF4B
:1006C800DE2A000EDD22000E0001A66F000EA56FC7
:1006D800A5C0A9F0A6C0AAF0A769A86942C0D9FF19
:1006E80043C0DAFFDECFF6FFDDCFF7FF0800F55095
:1006F800640AD8B482EF03F084EF03F096EF03F0B6
:1007080042C0D9FF43C0DAFFDECFF6FFDDCFF7FFE7
:100718000800F550690AD8A494EF03F096EF03F0A7
:10072800D6EF03F042C0D9FF43C0DAFFDE2A000E3D
:10073800DD2244C0D9FF45C0DAFFDFCF46F0020E04
:10074800DE26DFCF47F0000EDD2246C0D9FF47C0C6
:10075800DAFFDECF48F0DDCF49F0000E49BEFF0ECC
:100768004A6E4B6E4C6E4D6E4E6E4F6E40C01CF016
:1007780041C01DF048C01EF049C01FF04AC020F01B
:100788004BC021F04CC022F04DC023F04EC024F0E5
:100798004FC025F0DDEC01F01CC040F01DC041F059
:1007A80027EF04F042C0D9FF43C0DAFFDECFF6FFDF
:1007B800DDCFF7FF0800F550250AD8A4E6EF03F0CF
:1007C800E8EF03F0FFEF03F042C0D9FF43C0DAFFC0
:1007D800DE2A000EDD22000E026E250E016E40C0DC
:1007E80003F041C004F09EEC05F0000E416E010ECE
:1007F800406E27EF04F042C0D9FF43C0DAFFDE2A7B
:10080800000EDD22000E416E000E406E27EF04F050
:1008180042C0D9FF43C0DAFFDECFF6FFDDCFF7FFD6
:100828000800F550016E026A40C003F041C004F0B0
:100838009EEC05F042C0D9FF43C0DAFFDE2A000E65
:10084800DD22F9EF03F01200000E126E10BE31EF38
:1008580004F02FEF04F043EF04F0101E0F1E0E1EDD
:100868000D1E0C1E0B1E0A1E096C000E0A220B22FE
:100878000C220D220E220F221022010E126E08BE2B
:100888004AEF04F048EF04F05CEF04F0081E071E7E
:10089800061E051E041E031E021E016C000E022207
:1008A800032204220522062207220822010E121A18
:1008B80020EE13F0070EDE6AE806FDE209500A1082
:1008C8000B100C100D100E100F101010D8B46FEF85
:1008D80004F071EF04F0C3EF04F0010E116E7FEF26
:1008E80004F0D89009360A360B360C360D360E361B
:1008F8000F361036112A10AE84EF04F086EF04F09C
:1009080075EF04F0D89013361436153616361736A8
:10091800183619361A360950015C0A5002580B501D
:1009280003580C5004580D5005580E5006580F50D7
:10093800075810500858D8A0A4EF04F0A6EF04F008
:10094800B7EF04F00950015E0A50025A0B50035ADF
:100958000C50045A0D50055A0E50065A0F50075A9B
:100968001050085A1380D89010320F320E320D32C0
:100978000C320B320A320932112E86EF04F0125073
:10098800D8B4C9EF04F0CBEF04F0DBEF04F01A1E83
:10099800191E181E171E161E151E141E136C000E87
:1009A8001422152216221722182219221A2213C0DD
:1009B80001F014C002F015C003F016C004F017C00F
:1009C80005F018C006F019C007F01AC008F01200A8
:1009D800000E126E08BEF5EF04F0F3EF04F007EF17
:1009E80005F0081E071E061E051E041E031E021E15
:1009F800016C000E0222032204220522062207228D
:100A08000822010E126E10BE0EEF05F00CEF05F075
:100A18001EEF05F0101E0F1E0E1E0D1E0C1E0B1EC7
:100A28000A1E096C000E0A220B220C220D220E222D
:100A38000F22102209500A100B100C100D100E1066
:100A48000F101010D8B42BEF05F02DEF05F075EF4F
:100A580005F0010E116E3BEF05F0D89009360A3605
:100A68000B360C360D360E360F361036112A10AEF0
:100A780040EF05F042EF05F031EF05F00950015C59
:100A88000A5002580B5003580C5004580D50055882
:100A98000E5006580F50075810500858D8A057EF56
:100AA80005F059EF05F069EF05F00950015E0A50AD
:100AB800025A0B50035A0C50045A0D50055A0E5046
:100AC800065A0F50075A1050085AD89010320F3251
:100AD8000E320D320C320B320A320932112E42EF2D
:100AE80005F01250D8B47BEF05F07DEF05F08DEFDF
:100AF80005F0081E071E061E051E041E031E021E04
:100B0800016C000E0222032204220522062207227B
:100B1800082201C001F002C002F003C003F004C0C3
:100B280004F005C005F006C006F007C007F008C0CD
:100B380008F0120003500410D8B4A5EF05F0A7EF91
:100B480005F0B0EF05F003500410D8A4AEEF05F09F
:100B5800B0EF05F0B5EF05F001505CEC09F002EFDD
:100B680006F020EE04F00350D9260450DA22DE50B5
:100B7800DE10D8B4C2EF05F0C4EF05F0DFEF05F0E2
:100B880020EE04F00350D9260450DA2210EE02F0C9
:100B98000350E1260450E222DE50E65CE650800A6B
:100BA800096EDE50800A0958D8B0DDEF05F0DFEF96
:100BB80005F002EF06F020EE02F00350D9260450AB
:100BC800DA22DECF05F0DDCF06F003C0D9FF04C07E
:100BD800DAFFDECF07F0DDCF08F005500724D96E25
:100BE80006500820DA6E01C0DFFF20EE02F0035045
:100BF800D9260450DA22DE2A000EDD221200000176
:100C0800A9A109EF06F00BEF06F015EF06F013C0E7
:100C18000AF014C00BF011C00CF012C00DF035EC46
:100C280008F016BE1AEF06F01CEF06F022EF06F0E9
:100C380015C01AF016C01BF026EF06F0000E1B6E4A
:100C4800000E1A6E000E196E000E186E38EF06F0C0
:100C5800000E026E200E016E11C003F012C004F0E7
:100C68009EEC05F0184A192A1A50185C1950800A87
:100C7800176E1B50800A1758D8A045EF06F047EFAB
:100C880006F02CEF06F00001A9B14DEF06F04FEF8A
:100C980006F059EF06F013C00AF014C00BF011C0AB
:100CA8000CF012C00DF035EC08F013C001F014C0C0
:100CB80002F0EDEC08F01A500124116E1B500220CE
:100CC800126E12000101026F010102390F0B026F4F
:100CD80002510F0B026F02C101F1F10E011701471A
:100CE800014782500119FB0B0119826E02C101F103
:100CF800D8900133790E0117014701470147825007
:100D08000119F70B0119826E02C101F1D890013364
:100D1800D89001333D0E011783500119FE0B0119BC
:100D2800836E02C101F1D8900133D8900133D89075
:100D380001331F0E0117014783500119FD0B0119DB
:100D4800836E00B102D0829001D082808282030E2D
:100D5800E82EFED700F082921200036E03380F0BC4
:100D6800036E03500F0B036E03C002F0F10E021660
:100D78000246024682500218FB0B0218826E03C01C
:100D880002F0D8900232790E021602460246024656
:100D980082500218F70B0218826E03C002F0D89036
:100DA8000232D89002323D0E021683500218FE0B12
:100DB8000218836E03C002F0D8900232D890023233
:100DC800D89002321F0E0216024683500218FD0BFD
:100DD8000218836E01B002D0829001D08280828294
:100DE800030EE82EFED700F082921200000E066E67
:100DF800000E056E03500410D8B405EF07F007EF96
:100E080007F02FEF07F0010E076E0FEF07F0D890ED
:100E180003360436072A04AE14EF07F016EF07F07E
:100E28000BEF07F0D890053606360350015C0450E6
:100E38000258D8A022EF07F024EF07F029EF07F0B7
:100E48000350015E0450025A0580D89004320332E0
:100E5800072E16EF07F005C001F006C002F01200D9
:100E680003500410D8B43BEF07F03DEF07F061EFF3
:100E780007F0010E056E45EF07F0D89003360436EB
:100E8800052A04AE4AEF07F04CEF07F041EF07F0F0
:100E98000350015C04500258D8A055EF07F057EFF3
:100EA80007F05BEF07F00350015E0450025AD89038
:100EB80004320332052E4CEF07F001C001F002C0E6
:100EC80002F0120052C056F053C057F0000E000155
:100ED800A46F000EA36F84EF07F050C040F051C01C
:100EE80041F0560E426E000E436E54C044F055C099
:100EF80045F04EEC03F040500001A3274150A423D5
:100F080056C0F6FF57C0F7FF0800F5500009D8A4EF
:100F180090EF07F092EF07F071EF07F0A3C050F0E1
:100F2800A4C051F012009490949294949496959041
:100F38009592829082928294829683908392020EF6
:100F48000101066F040E056FBA0EE82EFED7052FB5
:100F5800FCD7062FFAD700F0320E0FEC08F0280E57
:100F68000FEC08F00C0E0FEC08F0010E0FEC08F077
:100F7800060E0FEC08F012005C0E0001626F000E06
:100F8800636F58C064F059C065F0000E676F000EBB
:100F9800666F000E696F000E686F640E506E000E6B
:100FA800516E5AC052F05BC053F0620E546E000E80
:100FB800556E66EC07F0000166515824D96E6751EA
:100FC8005920DA6E000EDF6E12009E0EF66E120EBB
:100FD800F76E000EF86E00EECFF010EE0FF009007D
:100FE800F5CFEEFFE550E150FAE1BA0EF66E120EBB
:100FF800F76E000EF86E0900F5CF5EF000EE9FF078
:10100800300EEE6AE806FDE15F905F92000EF86E22
:10101800000120EF09F00101046F410E0101036F87
:10102800EE0EE82EFED7032FFCD700F0000E0101CC
:10103800006F045166EC06F001010439F00B046FEF
:101048000D0E0101036FFB0EE82EFED7032FFCD710
:1010580000F000F0000E0101006F045166EC06F08C
:101068001200000E106E000E0F6E46EF08F00EC054
:1010780001F0026A0CC003F00DC004F09EEC05F00C
:101088000F4A102A0F500A24D96E10500B20DA6E1E
:10109800DF500E6E0E50D8A454EF08F056EF08F04B
:1010A8003BEF08F0120014BE64EF08F0145006E19C
:1010B8001304D8B062EF08F064EF08F072EF08F09C
:1010C80013C015F014C016F0151E161E154A162A60
:1010D80015C013F016C014F076EF08F013C013F023
:1010E80014C014F01200000E8A6E000E936E000EEB
:1010F800816E7F907F927E9E7E9C6F8C6F9A6F9898
:101108006F906F926F946E926E80010E7A6EF30EEE
:101118007B6E000E786E130E796EA3886B68000ED6
:101128006A6E1200056E410E046EEE0EE82EFED7B2
:10113800042EFCD700F000F0000E016E0550B1EC53
:1011480006F00538F00B056E0D0E046EFC0EE82E49
:10115800FED7042EFCD7000E016E0550B1EC06F048
:101168001200000E086EC3EF08F008500624D96E6E
:10117800000E0720DA6EDF5008EC09F0082A085044
:101188000624D96E000E0720DA6EDF50D8A4CFEF00
:1011980008F0D1EF08F0B9EF08F012000101046F70
:1011A800410E0101036FEE0EE82EFED7032FFCD788
:1011B80000F0010E0101006F045166EC06F0010118
:1011C8000439F00B046F010E006F045166EC06F051
:1011D800120001C003F002C004F0F5EF08F0014A64
:1011E800022A01C0D9FF02C0DAFFDF50D8A4FFEFFE
:1011F80008F001EF09F0F3EF08F00350015C016E0D
:1012080004500258026E1200056E410E046EEE0E76
:10121800E82EFED7042EFCD700F000F0010E016E78
:101228000550B1EC06F00538F00B056E010E016EA5
:101238000550B1EC06F0120097EC07F057EC09F0F6
:1012480077EC08F037EC09F045EC09F05AEC09F0B6
:1012580092949294B8948084610ED2EC08F033EFA3
:1012680009F0DBEF01F0D596D598D59AD59CF28A8E
:10127800D58ED590D582D594D1C0D6FFD2C0D7FF10
:101288001200B788B786B79AB780A380D3C087FF04
:10129800D4C088FF120077EC77ECDB0BFF00650009
:0512A800630041AA559E
:0D12AE00F28EF28C12007E8E1200120001F2
:103D280000C003D603EC03020419042F0445045B06
:103D380004710488049E04BB04D204E004F7040D53
:103D480005230539054F0566057C058B05A105B7D3
:103D580005C605DC05EB05010610062606350644F2
:103D6800065A066906770686069506A406B306C1AE
:103D780006C906D806E606EE06FD06040713071A66
:103D88000722072907300738073F0747074E075517
:103D98000755075D075D07640764076407640764E0
:103DA80007640764076407640764075D075D0755D0
:103DB8000755074E07470747073F073807300729C2
:103DC800071A0713070B07FD06F506E606DF06D0F8
:103DD80006C106BA06AB069C068E067F067006610B
:103DE800064B063C062D061F060806FA05E305D510
:103DF80005BE05A805990583056D055705480532D3
:103E0800051C050505EF04D904C304AD0496048018
:103E1800046A0454043E0427040A04F403DD03C7B7
:103E280003B1039B0385036E0351033B0324030E75
:103E380003F802E202CC02B5029F02890273025D16
:103E4800024602300221020B02F501DF01D001BA5D
:103E580001A40195017F0170015A014B013C012D1C
:103E68000117010801F900EB00DC00CD00BE00B726
:103E780000A8009900920083007C006D0065005E38
:103E8800004F00480040003900320032002A002369
:103E98000023001B001B001400140014001400145D
:103EA80000140014001400140014001B001B00234D
:103EB8000023002A0032003900400048004F005714
:103EC800005E00650074007C008A009200A100AFCB
:103ED80000B700C600D400E300F200010110011E83
:103EE80001350143015201680177018D019C01B23E
:103EF80001C101D701EE01FC01130229023F02555D
:103F0800026B0282029802A702BD02DA02F10207DE
:103F1800031D0333034903600376038C03A203B82C
:103F280003ECEC75F6A3F93AFB2EFCD1FC45FD9C9D
:103F3800FDE0FD16FE43FE68FE87FEA2FEB9FECD3B
:103F4800FEDFFEEFFEFEFE0AFF16FF21FF2AFF330B
:103F5800FF3BFF43FF4AFF50FF56FF5CFF61FF66D0
:103F6800FF6BFF6FFF73FF77FF7BFF7EFF81FF848F
:103F7800FF87FF8AFF8DFF90FF92FF94FF97FF99BD
:103F8800FF9BFF9DFF9FFFA1FFA2FFA4FFA6FFA726
:103F9800FFA9FFAAFFACFFADFFAEFFB0FFB1FFB2B4
:103FA800FFB3FFB5FFB6FFB7FFB8FFB9FFBAFFBB56
:103FB800FFBCFFBDFFBDFFBEFFBFFFC0FFC1FFC10C
:103FC800FFC2FFC3FFC4FFC4FFC5FFC6FFC6FFC7CC
:103FD800FFC8FFC8FFC9FFC9FFCAFFCBFFCBFFCC93
:103FE800FFCCFFCDFFCDFFDCFF3031323334353627
:073FF8003738392564000091
:020000040020DA
:08000000FFFFFFFFFFFFFFFF00
:020000040030CA
:0E000000FF060D3E241D80FF0FC00FE00F40D5
:00000001FF
