:020000040000FA
:04000000E1EF1EF01E
:103DC2000001E4EF1EF003EC1FF0ECEC1EF0E8EF54
:103DD2001EF000EF00F07EBEF1EF1EF0F5EF1EF0D8
:103DE200016A012AF6EF1EF0016A010E026E012A33
:103DF200FDEF1EF0D8900236012EFBEF1EF00250AE
:103E02007E1212007FB008EF1FF00CEF1FF0016A64
:103E1200012A0DEF1FF0016A010E026E012A14EF52
:103E22001FF0D8900236012E12EF1FF00250FF0A47
:103E32007F167FB21FEF1FF023EF1FF0016A012AE6
:103E420024EF1FF0016A010E026E012A2BEF1FF010
:103E5200D8900236012E29EF1FF00250FF0A7F167A
:103E62007EBE36EF1FF03AEF1FF0016A012A3BEFE8
:103E72001FF0016A010E026E012A42EF1FF0D89074
:103E82000236012E40EF1FF00250FF0A7E167EBC62
:103E92004DEF1FF051EF1FF0016A012A52EF1FF0A0
:103EA200016A010E026E012A59EF1FF0D890023604
:103EB200012E57EF1FF002507E126FBC63EF1FF00E
:103EC20067EF1FF0016A012A68EF1FF0016A010E15
:103ED200026E012A6FEF1FF0D8900236012E6DEFAD
:103EE2001FF002506F126FBA79EF1FF07DEF1FF0D3
:103EF200016A012A7EEF1FF0016A000E026E012A9A
:103F020085EF1FF0D8900236012E83EF1FF002508A
:103F12006F166FB88FEF1FF093EF1FF0016A012A3F
:103F220094EF1FF0016A000E026E012A9BEF1FF050
:103F3200D8900236012E99EF1FF002506F166FB023
:103F4200A5EF1FF0A9EF1FF0016A012AAAEF1FF0E7
:103F5200016A000E026E012AB1EF1FF0D8900236FC
:103F6200012EAFEF1FF002506F166FB2BBEF1FF0C2
:103F7200BFEF1FF0016A012AC0EF1FF0016A000EB5
:103F8200026E012AC7EF1FF0D8900236012EC5EF4C
:103F92001FF002506F166FB4D1EF1FF0D5EF1FF074
:103FA200016A012AD6EF1FF0016A000E026E012A91
:103FB200DDEF1FF0D8900236012EDBEF1FF002502A
:103FC2006F166EB2E7EF1FF0EBEF1FF0016A012AE6
:103FD200ECEF1FF0016A010E026E012AF3EF1FF0EF
:103FE200D8900236012EF1EF1FF00250FF0A6E1632
:0E3FF200010E7A6E7B68000E7C6E7D681200F8
:020000040020DA
:08000000FFFFFFFFFFFFFFFF00
:020000040030CA
:0E000000FFC00E3E3C9D81FF0FC00FE00F4081
:00000001FF
