:020000040000FA
:0400000092EF00F08B
:100018004680D8CF10F0E8CF11F0E0CF12F0F3CF40
:1000280013F0F4CF14F0F6CF15F0F7CF16F0F8CFA1
:1000380017F0F5CF18F0F2A424EF00F026EF00F047
:1000480045EF00F0F2946E824050196E19C078FFA7
:100058003FC079FF3350196E19C076FF32C077FF61
:100068003150196E19C074FF30C075FF6E92040EBE
:100078004526040E3726040E36262CC0D6FF2DC082
:10008800D7FF9EA04AEF00F04CEF00F054EF00F0CD
:100098009E90000ECF6E000ECE6E010E0001F56F21
:1000A800A4A059EF00F05BEF00F062EF00F0A4901D
:1000B8002EC087FF2FC088FF010E426E9EA267EFF9
:1000C80000F069EF00F07EEF00F035B002D08094C8
:1000D80001D080843550D8B474EF00F077EF00F089
:1000E800010E78EF00F0000E356E06EC02F09E92DD
:1000F800E60ECC6E18C0F5FF17C0F8FF16C0F7FF64
:1001080015C0F6FF14C0F4FF13C0F3FF12C0E0FFE0
:1001180011C0E8FF10C0D8FF4690100013EF08F098
:100128006CC084F06DC085F06EC086F06FC087F03B
:1001380070C088F071C089F072C08AF073C08BF00B
:1001480000018BBFAAEF00F0ADEF00F0010EAEEF9B
:1001580000F0000E826F836B82518311D8B4B7EF21
:1001680000F0B9EF00F0C9EF00F08B1F8A1F891F5C
:10017800881F871F861F851F846D000E8523862391
:100188008723882389238A238B233CBECEEF00F064
:10019800D0EF00F0D1EF00F03D923CBEDEEF00F072
:1001A8003C5006E13B04D8B0DCEF00F0DEEF00F095
:1001B800E4EF00F0000E7F6F010E7E6FE8EF00F0B5
:1001C8003BC07EF03CC07FF0F3C080F0F4C081F00B
:1001D80082518311D8A4F3EF00F0F5EF00F0FCEFA3
:1001E80000F03DA4FAEF00F0FCEF00F0FFEF00F0A4
:1001F8008007D8A08107000E8D6F1F0E8C6F000E30
:1002080001011F6F85EF01F08C07D8A08D07000E44
:100218008C25D96E010E8D21DA6E84C01AF085C046
:100228001BF086C01CF087C01DF088C01EF089C076
:100238001FF08AC020F08BC021F00A0E226E000E3B
:10024800236E000E246E000E256E000E266E000E24
:10025800276E000E286E000E296E99EC05F01AC064
:1002680074F01BC075F01CC076F01DC077F01EC07E
:1002780078F01FC079F020C07AF021C07BF074C0FC
:1002880060F076C061F092EC09F000016051300F27
:10029800DF6E7E07D8A07F078007D8A0810784C0BB
:1002A8001AF085C01BF086C01CF087C01DF088C0FE
:1002B8001EF089C01FF08AC020F08BC021F00A0E02
:1002C800226E000E236E000E246E000E256E000EA8
:1002D800266E000E276E000E286E000E296ED4ECD6
:1002E80004F01AC084F01BC085F01CC086F01DC045
:1002F80087F01EC088F01FC089F020C08AF021C096
:100308008BF000018DBF91EF01F08D5108E18C0554
:10031800D8A091EF01F093EF01F0C3EF01F0845101
:10032800851186118711881189118A118B11D8A41A
:10033800A0EF01F0A2EF01F008EF01F07FBFAFEFEF
:1003480001F07F5106E17E05D8B0ADEF01F0AFEFC7
:1003580001F008EF01F081BFBAEF01F0815108E127
:100368008005D8A0BAEF01F0BCEF01F0C3EF01F0AF
:100378003DB2C1EF01F0C3EF01F008EF01F0825187
:100388008311D8A4CAEF01F0CCEF01F0D3EF01F04C
:100398003DA4D1EF01F0D3EF01F0F1EF01F08C07AC
:1003A800D8A08D0782518311D8A4DDEF01F0DFEFCB
:1003B80001F0E5EF01F0000E7D6F2B0E7C6FE9EF89
:1003C80001F0000E7D6F2D0E7C6F000E8C25D96E0E
:1003D800010E8D21DA6E7CC0DFFF6AC060F06BC051
:1003E80061F0000E8C25626F010E8D21636F80C055
:1003F80064F081C065F0B0EC06F060C06AF061C0DE
:100408006BF012000001F651020D8D0EF324F66E0A
:100418003F0EF420F76E0900F5CF0AF00A00F5CF79
:100428000BF0320EF6611BEF02F01DEF02F08EEFBB
:1004380002F04550020DC50EF324F66E3C0EF42072
:10044800F76E0900F5CF08F00900F5CF09F0D8904C
:1004580008360936D89008360936D890083609364D
:1004680008C001F009C002F00AC003F00BC004F094
:10047800D9EC07F001C03FF002C040F03750020D40
:10048800C50EF324F66E3C0EF420F76E0900F5CF86
:1004980008F00900F5CF09F0D89008360936D89049
:1004A80008360936D8900836093608C001F009C060
:1004B80002F00AC003F00BC004F0D9EC07F001C049
:1004C80032F002C033F03650020DC50EF324F66E3A
:1004D8003C0EF420F76E0900F5CF08F00900F5CFBF
:1004E80009F0D89008360936D89008360936D890D9
:1004F8000836093608C001F009C002F00AC003F046
:100508000BC004F0D9EC07F001C030F002C031F0A4
:10051800B8EF02F04550020DC50EF324F66E3C0EFE
:10052800F420F76E0900F5CF3FF00A00F5CF40F050
:100538003750020DC50EF324F66E3C0EF420F76E0C
:100548000900F5CF32F00A00F5CF33F03650020D2E
:10055800C50EF324F66E3C0EF420F76E0900F5CFB5
:1005680030F00A00F5CF31F0405009E1200E3F5C31
:10057800D8A0C1EF02F0C3EF02F0C5EF02F0C9EF57
:1005880002F0000E406E200E3F6E335009E1200E3F
:10059800325CD8A0D2EF02F0D4EF02F0D6EF02F02E
:1005A800DAEF02F0000E336E200E326E315009E1A0
:1005B800200E305CD8A0E3EF02F0E5EF02F0E7EFA1
:1005C80002F0EBEF02F0000E316E200E306EDF0EFF
:1005D8003F5C1F0E4058D8B0F4EF02F0F6EF02F07F
:1005E800F8EF02F0FCEF02F01F0E406EDE0E3F6ED9
:1005F800DF0E325C1F0E3358D8B005EF03F007EF5B
:1006080003F009EF03F00DEF03F01F0E336EDE0E5B
:10061800326EDF0E305C1F0E3158D8B016EF03F083
:1006280018EF03F01AEF03F01EEF03F01F0E316E00
:10063800DE0E306E120090C0D9FF91C0DAFFDECF17
:10064800F6FFDDCFF7FF0800F550250AD8A42FEFF5
:1006580003F031EF03F0DEEF03F090C0D9FF91C053
:10066800DAFFDE2A000EDD22000E0001F46F000E14
:10067800F36FF3C03DF0F4C03EF03B683C6890C0B7
:10068800D9FF91C0DAFFDECFF6FFDDCFF7FF080014
:10069800F550640AD8B453EF03F055EF03F067EF51
:1006A80003F090C0D9FF91C0DAFFDECFF6FFDDCFAF
:1006B800F7FF0800F550690AD8A465EF03F067EF63
:1006C80003F0A7EF03F090C0D9FF91C0DAFFDE2A4C
:1006D800000EDD2292C0D9FF93C0DAFFDFCF94F07D
:1006E800020EDE26DFCF95F0000EDD2294C0D9FF82
:1006F80095C0DAFFDECF96F0DDCF97F0000E97BFFA
:10070800FF0E986F996F9A6F9B6F9C6F9D6F8EC04D
:100718006AF08FC06BF096C06CF097C06DF098C00F
:100728006EF099C06FF09AC070F09BC071F09CC0D9
:1007380072F09DC073F094EC00F06AC08EF06BC04C
:100748008FF0F9EF03F090C0D9FF91C0DAFFDECF48
:10075800F6FFDDCFF7FF0800F550250AD8A4B7EF5C
:1007680003F0B9EF03F0D1EF03F090C0D9FF91C0C7
:10077800DAFFDE2A000EDD22000E1B6E250E1A6E31
:100788008EC01CF08FC01DF04BEC06F0000E00016F
:100798008F6F010E8E6FF9EF03F090C0D9FF91C0F3
:1007A800DAFFDE2A000EDD22000E8F6F000E8E6F3C
:1007B800F9EF03F090C0D9FF91C0DAFFDECFF6FF62
:1007C800DDCFF7FF0800F5501A6E1B6A8EC01CF0CB
:1007D8008FC01DF04BEC06F090C0D9FF91C0DAFF36
:1007E800DE2A000EDD22CAEF03F012000001F551E7
:1007F800D8B401EF04F003EF04F0D3EF04F00A0ECD
:10080800F719D8A40AEF04F00CEF04F0D0EF04F0C5
:10081800F651B66FB76BFC51B61907E1FD51B71920
:10082800D8A419EF04F01BEF04F033EF04F02C50B8
:10083800F81907E12D50F919D8A425EF04F027EF8E
:1008480004F033EF04F0FC51FA1909E1FD51FB19EA
:10085800D8B431EF04F033EF04F0C6EF04F0010E22
:10086800B3EC09F0D80E0001A66F000EA76FFB0EBF
:10087800A86F3F0EA96FF6C0AAF0AB6BAFEC08F0FB
:10088800D80E1F6E000E206ED2EC09F0200E0AEC76
:100898000AF0C80E0001A66F000EA76FFB0EA86F26
:1008A8003F0EA96FFCC0AAF0FDC0ABF0AFEC08F09A
:1008B800C80E1F6E000E206ED2EC09F0200E0AEC56
:1008C8000AF02CC0E9F02DC0EAF0000E0001E86F34
:1008D80090EF04F0B80EE825D96EDA6A000EDA2235
:1008E800E9C01AF0EAC01BF0000E1D6E0A0E1C6E5D
:1008F8004CEC08F01A50DF6EE9C01AF0EAC01BF0A1
:10090800000E1D6E0A0E1C6E9FEC07F01AC0E9F06F
:100918001BC0EAF00001E82BE951EA11D8A497EFCF
:1009280004F099EF04F06EEF04F0FF0EE825EB6F8A
:10093800EC6BFF0EEC23ECBFA6EF04F0A4EF04F081
:10094800A8EF04F0C6EF04F0B80EEB25D96E000E40
:10095800EC21DA6EDF50B66FB76BF10EB625F66E86
:100968003F0EB721F76E0800F5500AEC0AF00001B7
:10097800EB07D8A0EC07ECBFC6EF04F0C4EF04F017
:10098800A8EF04F0000EF76FFCC0FAF0FDC0FBF012
:100998002CC0F8F02DC0F9F0F72B000EF56F1200FF
:1009A800000E0001616F29BEDEEF04F0DCEF04F0F9
:1009B800F0EF04F0291E281E271E261E251E241EC1
:1009C800231E226C000E23222422252226222722DF
:1009D80028222922010E616F21BEF7EF04F0F5EFFE
:1009E80004F009EF05F0211E201E1F1E1E1E1D1EED
:1009F8001C1E1B1E1A6C000E1B221C221D221E22EE
:100A08001F2220222122010E611B20EE62F0070E18
:100A1800DE6AE806FDE22250231024102510261075
:100A2800271028102910D8B41CEF05F01EEF05F088
:100A380070EF05F0010E606F2CEF05F0D8902236AC
:100A48002336243625362636273628362936602B8F
:100A580029AE31EF05F033EF05F022EF05F0D8901D
:100A6800623763376437653766376737683769379A
:100A780022501A5C23501B5824501C5825501D58CE
:100A880026501E5827501F582850205829502158A2
:100A9800D8A051EF05F053EF05F064EF05F02250B0
:100AA8001A5E23501B5A24501C5A25501D5A265092
:100AB8001E5A27501F5A2850205A2950215A6281FD
:100AC800D89029322832273226322532243223324E
:100AD8002232602F33EF05F06151D8B476EF05F07C
:100AE80078EF05F088EF05F0691F681F671F661F1C
:100AF800651F641F631F626D000E632364236523F3
:100B0800662367236823692362C01AF063C01BF059
:100B180064C01CF065C01DF066C01EF067C01FF001
:100B280068C020F069C021F01200000E2B6E21BEB3
:100B3800A2EF05F0A0EF05F0B4EF05F0211E201E8E
:100B48001F1E1E1E1D1E1C1E1B1E1A6C000E1B22A5
:100B58001C221D221E221F2220222122010E2B6E62
:100B680029BEBBEF05F0B9EF05F0CBEF05F0291E64
:100B7800281E271E261E251E241E231E226C000E3C
:100B880023222422252226222722282229222250F3
:100B98002310241025102610271028102910D8B447
:100BA800D8EF05F0DAEF05F022EF06F0010E2A6E15
:100BB800E8EF05F0D8902236233624362536263637
:100BC8002736283629362A2A29AEEDEF05F0EFEF29
:100BD80005F0DEEF05F022501A5C23501B58245014
:100BE8001C5825501D5826501E5827501F5828504D
:100BF800205829502158D8A004EF06F006EF06F037
:100C080016EF06F022501A5E23501B5A24501C5A25
:100C180025501D5A26501E5A27501F5A2850205A10
:100C28002950215AD89029322832273226322532A3
:100C38002432233222322A2EEFEF05F02B50D8B47B
:100C480028EF06F02AEF06F03AEF06F0211E201EE4
:100C58001F1E1E1E1D1E1C1E1B1E1A6C000E1B2294
:100C68001C221D221E221F22202221221AC01AF015
:100C78001BC01BF01CC01CF01DC01DF01EC01EF0C8
:100C88001FC01FF020C020F021C021F012001C500E
:100C98001D10D8B452EF06F054EF06F05DEF06F0E1
:100CA8001C501D10D8A45BEF06F05DEF06F062EF54
:100CB80006F01A5071EC0AF0AFEF06F020EE04F0DF
:100CC8001C50D9261D50DA22DE50DE10D8B46FEF42
:100CD80006F071EF06F08CEF06F020EE04F01C50E1
:100CE800D9261D50DA2210EE02F01C50E1261D50C4
:100CF800E222DE50E65CE650800A226EDE50800A70
:100D08002258D8B08AEF06F08CEF06F0AFEF06F065
:100D180020EE02F01C50D9261D50DA22DECF1EF03C
:100D2800DDCF1FF01CC0D9FF1DC0DAFFDECF20F0D9
:100D3800DDCF21F01E502024D96E1F502120DA6EFD
:100D48001AC0DFFF20EE02F01C50D9261D50DA220F
:100D5800DE2A000EDD2212003DA0B5EF06F0B7EF47
:100D680006F0C1EF06F062C023F063C024F060C053
:100D780025F061C026F070EC09F0000165BFC7EFEF
:100D880006F0C9EF06F0CFEF06F064C068F065C062
:100D980069F0D3EF06F0000E696F000E686F000E61
:100DA800676F000E666FE6EF06F0000E1B6E200EF2
:100DB8001A6E60C01CF061C01DF04BEC06F000011B
:100DC800664B672B6851665D6751800A2A6E6951C8
:100DD800800A2A58D8A0F3EF06F0F5EF06F0D9EF0D
:100DE80006F03DB0FAEF06F0FCEF06F006EF07F06C
:100DF80062C023F063C024F060C025F061C026F013
:100E080070EC09F062C01AF063C01BF0EFEC09F057
:100E1800000168511A24606F69511B20616F12002C
:100E28001C6E1C380F0B1C6E1C500F0B1C6E1CC04C
:100E38001BF0F10E1B161B461B4682501B18FB0BA2
:100E48001B18826E1CC01BF0D8901B32790E1B1623
:100E58001B461B461B4682501B18F70B1B18826E3D
:100E68001CC01BF0D8901B32D8901B323D0E1B16AD
:100E780083501B18FE0B1B18836E1CC01BF0D890E8
:100E88001B32D8901B32D8901B321F0E1B161B46E4
:100E980083501B18FD0B1B18836E1AB002D082906A
:100EA80001D082808282030EE82EFED700F0829263
:100EB80012004250D8B463EF07F065EF07F09EEFD9
:100EC80007F04404D8A46BEF07F06DEF07F09BEF31
:100ED80007F0000E446E0001F6511A6E1B6AFC51B1
:100EE8001A5CFD511B58D8B07CEF07F07EEF07F075
:100EF80081EF07F0F62B8DEF07F0F651FC5D000E41
:100F0800FD59D8B08AEF07F08CEF07F08DEF07F0A6
:100F1800F607F651020DC50EF324F66E3E0EF420C8
:100F2800F76E0900F5CF2CF00A00F5CF2DF0442A12
:100F3800000E426E1200000E1F6E000E1E6E1C5038
:100F48001D10D8B4AAEF07F0ACEF07F0D4EF07F004
:100F5800010E206EB4EF07F0D8901C361D36202AFB
:100F68001DAEB9EF07F0BBEF07F0B0EF07F0D89070
:100F78001E361F361C501A5C1D501B58D8A0C7EFD0
:100F880007F0C9EF07F0CEEF07F01C501A5E1D50AE
:100F98001B5A1E80D8901D321C32202EBBEF07F042
:100FA8001EC01AF01FC01BF01200000E066E000EC5
:100FB800056E03500410D8B4E4EF07F0E6EF07F02D
:100FC8000EEF08F0010E076EEEEF07F0D89003362B
:100FD8000436072A04AEF3EF07F0F5EF07F0EAEF5F
:100FE80007F0D890053606360350015C04500258C5
:100FF800D8A001EF08F003EF08F008EF08F003505D
:10100800015E0450025A0580D89004320332072E3C
:10101800F5EF07F005C001F006C002F01200D20E8D
:10102800F66E140EF76E000EF86E00EEF8F010EE85
:1010380006F00900F5CFEEFFE550E150FAE1AA0EFF
:10104800F66E140EF76E000EF86E00EE2CF010EE31
:101058000FF00900F5CFEEFFE550E150FAE101EE9F
:1010680000F0200EEE6AE806FDE100EEEDF00B0E52
:10107800EE6AE806FDE100EE3BF00B0EEE6AE806CC
:10108800FDE146904692000EF86E000128EF09F047
:101098001C501D10D8B453EF08F055EF08F079EF45
:1010A80008F0010E1E6E5DEF08F0D8901C361D3654
:1010B8001E2A1DAE62EF08F064EF08F059EF08F041
:1010C8001C501A5C1D501B58D8A06DEF08F06FEF2C
:1010D80008F073EF08F01C501A5E1D501B5AD89088
:1010E8001D321C321E2E64EF08F01AC01AF01BC005
:1010F8001BF01200A0C0A4F0A1C0A5F0000E0001D2
:10110800F26F000EF16F9CEF08F09EC08EF09FC04A
:101118008FF0A40E906F000E916FA2C092F0A3C042
:1011280093F01FEC03F000018E51F1278F51F22349
:10113800A4C0F6FFA5C0F7FF0800F5500009D8A421
:10114800A8EF08F0AAEF08F089EF08F0F1C09EF0C8
:10115800F2C09FF01200AA0E0001AE6F000EAF6F32
:10116800A6C0B0F0A7C0B1F0000EB36F000EB26F0A
:10117800000EB56F000EB46FB00E9E6F000E9F6F1D
:10118800A8C0A0F0A9C0A1F0AE0EA26F000EA36F78
:101198007EEC08F00001B251A625D96EB351A72103
:1011A800DA6E000EDF6E12009490949294949496E6
:1011B800959095928290829282948296839083925F
:1011C800020E206E040E1F6EBA0EE82EFED71F2EDA
:1011D800FCD7202EFAD700F000F0320EB3EC09F05D
:1011E800280EB3EC09F00C0EB3EC09F0010EB3ECC9
:1011F80009F0060EB3EC09F012009EAC06EF09F0F8
:1012080008EF09F027EF09F0C4503418D8B40FEFED
:1012180009F011EF09F024EF09F0C450FF0A216E1C
:101228002150630DF3CF1AF0F4CF1BF039C01CF036
:101238003AC01DF09FEC07F01AC0FCF01BC0FDF08F
:10124800C4CF34F09E9C1200D8EC08F06CEC0AF085
:101258004DEC09F022EC0AF036EC0AF04BEC0AF0FF
:101268005DEC0AF041EC0AF064EC0AF06FEC0AF06D
:1012780092949294B894809400F000F0FAEC03F001
:101288005DEC07F001EC09F0805041EF09F092EFB6
:1012980000F0000E8A6E000E936E000E816E7F9035
:1012A8007F927F967F947F987F9A7F9C7F9E7E9E79
:1012B8007E9C6F8C6F9A6F986F906F926F946E92FE
:1012C8006E80070E7A6E7B686B68000E6A6E6D9E84
:1012D8006D8C320E6D121200000E296E000E286EF3
:1012E80081EF09F027C01AF01B6A25C01CF026C040
:1012F8001DF04BEC06F0284A292A28502324D96EE1
:1013080029502420DA6EDF50276E2750D8A48FEF9B
:1013180009F091EF09F076EF09F01200000161BFC2
:10132800A0EF09F0615106E16005D8B09EEF09F021
:10133800A0EF09F0AEEF09F060C062F061C063F0A1
:10134800621F631F624B632B62C060F063C061F071
:10135800B2EF09F060C060F061C061F012001E6E6B
:10136800410E1D6EEE0EE82EFED71D2EFCD700F0A6
:1013780000F0000E1A6E1E5014EC07F01E38F00B29
:101388001E6E0D0E1D6EFC0EE82EFED71D2EFCD710
:10139800000E1A6E1E5014EC07F01200000E216E9B
:1013A800E0EF09F021501F24D96E000E2020DA6EDC
:1013B800DF500AEC0AF0212A21501F24D96E000EB2
:1013C8002020DA6EDF50D8A4ECEF09F0EEEF09F038
:1013D800D6EF09F012001AC01CF01BC01DF0F7EF81
:1013E80009F01A4A1B2A1AC0D9FF1BC0DAFFDF50BE
:1013F800D8A401EF0AF003EF0AF0F5EF09F01C504A
:101408001A5C1A6E1D501B581B6E12001E6E410E80
:101418001D6EEE0EE82EFED71D2EFCD700F000F054
:10142800010E1A6E1E5014EC07F01E38F00B1E6EDB
:10143800010E1A6E1E5014EC07F01200C28AC298F0
:10144800C296C294000EC16EC08AC088C084C08291
:10145800C09E9A8E99929990B88092809D9CC280E5
:10146800C2821200D596D598D59AD59CD58ED580AE
:10147800D582D594F28AF1941200B788B786B79AC4
:10148800B780A3802EC087FF2FC088FF1200CD8AA7
:10149800CD88CD92CD809D80000ECF6E000ECE6E91
:1014A8001200ECECDB0BAA0055004101AA5501FF24
:0114B8000033
:1014BA00CA92CA82CA849D82E60ECC6E12009282B9
:1014CA00B8929286B896120077EC65004100F28EC7
:0A14DA00F28C12007E8E1200120048
:103CC400000F106F10D01030119111F1115112B278
:103CD4001212137213D3135314B414F4145415B5E9
:103CE4001515167516D61636179617D7173718974B
:103CF40018D81838197819D919191A791AB91AFA51
:103D04001A5A1B9A1BDA1B1B1C5B1C9B1CDB1C1CFE
:103D14001D3C1D7C1DBC1DDC1D1D1E3D1E7D1E9DF0
:103D24001EBD1EDD1EFE1E1E1F3E1F5E1F7E1F9E2D
:103D34001F9E1FBE1FBE1FDE1FDE1FDE1FDE1FDE17
:103D44001FDE1FDE1FDE1FDE1FDE1FBE1FBE1F9E07
:103D54001F9E1F7E1F5E1F5E1F3E1F1E1FFE1EDD59
:103D64001E9D1E7D1E5D1E1D1EFD1DBC1D9C1D5C1D
:103D74001D1C1DFC1CBB1C7B1C3B1CFB1BBA1B7AA7
:103D84001B1A1BDA1A991A591AF919B81958191859
:103D940019B71857181718B6175617F616B6165532
:103DA40016F51594153415D41473141314B313524F
:103DB40013F21291123112D1115011F01090102FF0
:103DC40010CF0F6E0F0E0FAE0E2D0ECD0D6D0D0C10
:103DD4000DAC0C4B0CEB0B8B0B2A0BCA0A6A0A09B1
:103DE4000AA90948090809A8084808E707A70747CE
:103DF40007E606A60646060506A50565052405E4A8
:103E040004840444040304C303830343030203E25A
:103E140002A202620242020102E101A101810161E6
:103E24000121010001E000C000A000A000800060AA
:103E340000600040004000200020002000200020FE
:103E440000200020002000200020004000400060EE
:103E54000060008000A000C000E0000001210141DA
:103E64000161018101C101E101220242028202C217
:103E740002E20223036303A303E30324046404A40C
:103E840004040545058505E50525068606C60626BA
:103E9400076707C70727086808C80828098909E9C0
:103EA40009490AAA0A0A0B4A0BAB0B2B0C8C0CEC23
:103EB4000C4C0DAD0D0D0E6D0ECE0E2E0F8F0FEFA3
:103EC4000FD9D9ECEC48F376F65EF8A3F98CFA3AFC
:103ED400FBC2FB2EFC87FCD1FC10FD45FD74FD9D4F
:103EE400FDC1FDE0FDFDFD17FE2EFE43FE56FE68FE
:103EF400FE78FE87FE95FEA2FEAEFEB9FEC4FECE9F
:103F0400FED7FEE0FEE8FEF0FEF7FEFEFE05FF0B28
:103F1400FF11FF16FF1CFF21FF26FF2BFF2FFF348D
:103F2400FF38FF3CFF40FF43FF47FF4AFF4DFF516F
:103F3400FF54FF57FF59FF5CFF5FFF61FF64FF669B
:103F4400FF69FF6BFF6DFF6FFF71FF73FF75FF77F5
:103F5400FF79FF7BFF7DFF7FFF80FF82FF83FF856B
:103F6400FF86FF88FF89FF8BFF8CFF8DFF8FFF90FB
:103F7400FF91FF92FF94FF95FF96FF97FF98FF9C98
:103F8400FF9DFF9EFF9FFFA0FF40003F003E003DBE
:103F9400003C003A00390038003700360035003460
:103FA400003300320031002F002E002D002C002B96
:103FB400002A0029002800270026002400230022CC
:103FC40000210020001F001E001D001C001B001902
:103FD4000018001700160015001400130012001139
:103FE4000010000E000D000C000B000A00303132EE
:0B3FF4003334353637383925640000BF
:020000040020DA
:08000000FFFFFFFFFFFFFFFF00
:020000040030CA
:0E000000FF060D3E381D80FF0FC00FE00F40C1
:00000001FF
